{
  "_format": "hh-sol-artifact-1",
  "contractName": "NFTMinter",
  "sourceName": "contracts/NFTMinter.sol",
  "abi": [
    {
      "inputs": [],
      "stateMutability": "nonpayable",
      "type": "constructor"
    },
    {
      "anonymous": false,
      "inputs": [
        {
          "indexed": true,
          "internalType": "address",
          "name": "owner",
          "type": "address"
        },
        {
          "indexed": true,
          "internalType": "address",
          "name": "approved",
          "type": "address"
        },
        {
          "indexed": true,
          "internalType": "uint256",
          "name": "tokenId",
          "type": "uint256"
        }
      ],
      "name": "Approval",
      "type": "event"
    },
    {
      "anonymous": false,
      "inputs": [
        {
          "indexed": true,
          "internalType": "address",
          "name": "owner",
          "type": "address"
        },
        {
          "indexed": true,
          "internalType": "address",
          "name": "operator",
          "type": "address"
        },
        {
          "indexed": false,
          "internalType": "bool",
          "name": "approved",
          "type": "bool"
        }
      ],
      "name": "ApprovalForAll",
      "type": "event"
    },
    {
      "inputs": [
        {
          "internalType": "address",
          "name": "to",
          "type": "address"
        },
        {
          "internalType": "uint256",
          "name": "tokenId",
          "type": "uint256"
        }
      ],
      "name": "approve",
      "outputs": [],
      "stateMutability": "nonpayable",
      "type": "function"
    },
    {
      "inputs": [
        {
          "internalType": "address",
          "name": "to",
          "type": "address"
        },
        {
          "internalType": "string",
          "name": "uri",
          "type": "string"
        }
      ],
      "name": "mintNFT",
      "outputs": [],
      "stateMutability": "nonpayable",
      "type": "function"
    },
    {
      "anonymous": false,
      "inputs": [
        {
          "indexed": true,
          "internalType": "address",
          "name": "previousOwner",
          "type": "address"
        },
        {
          "indexed": true,
          "internalType": "address",
          "name": "newOwner",
          "type": "address"
        }
      ],
      "name": "OwnershipTransferred",
      "type": "event"
    },
    {
      "inputs": [],
      "name": "renounceOwnership",
      "outputs": [],
      "stateMutability": "nonpayable",
      "type": "function"
    },
    {
      "inputs": [
        {
          "internalType": "address",
          "name": "from",
          "type": "address"
        },
        {
          "internalType": "address",
          "name": "to",
          "type": "address"
        },
        {
          "internalType": "uint256",
          "name": "tokenId",
          "type": "uint256"
        }
      ],
      "name": "safeTransferFrom",
      "outputs": [],
      "stateMutability": "nonpayable",
      "type": "function"
    },
    {
      "inputs": [
        {
          "internalType": "address",
          "name": "from",
          "type": "address"
        },
        {
          "internalType": "address",
          "name": "to",
          "type": "address"
        },
        {
          "internalType": "uint256",
          "name": "tokenId",
          "type": "uint256"
        },
        {
          "internalType": "bytes",
          "name": "_data",
          "type": "bytes"
        }
      ],
      "name": "safeTransferFrom",
      "outputs": [],
      "stateMutability": "nonpayable",
      "type": "function"
    },
    {
      "inputs": [
        {
          "internalType": "address",
          "name": "operator",
          "type": "address"
        },
        {
          "internalType": "bool",
          "name": "approved",
          "type": "bool"
        }
      ],
      "name": "setApprovalForAll",
      "outputs": [],
      "stateMutability": "nonpayable",
      "type": "function"
    },
    {
      "anonymous": false,
      "inputs": [
        {
          "indexed": true,
          "internalType": "address",
          "name": "from",
          "type": "address"
        },
        {
          "indexed": true,
          "internalType": "address",
          "name": "to",
          "type": "address"
        },
        {
          "indexed": true,
          "internalType": "uint256",
          "name": "tokenId",
          "type": "uint256"
        }
      ],
      "name": "Transfer",
      "type": "event"
    },
    {
      "inputs": [
        {
          "internalType": "address",
          "name": "from",
          "type": "address"
        },
        {
          "internalType": "address",
          "name": "to",
          "type": "address"
        },
        {
          "internalType": "uint256",
          "name": "tokenId",
          "type": "uint256"
        }
      ],
      "name": "transferFrom",
      "outputs": [],
      "stateMutability": "nonpayable",
      "type": "function"
    },
    {
      "inputs": [
        {
          "internalType": "address",
          "name": "newOwner",
          "type": "address"
        }
      ],
      "name": "transferOwnership",
      "outputs": [],
      "stateMutability": "nonpayable",
      "type": "function"
    },
    {
      "inputs": [
        {
          "internalType": "address",
          "name": "owner",
          "type": "address"
        }
      ],
      "name": "balanceOf",
      "outputs": [
        {
          "internalType": "uint256",
          "name": "",
          "type": "uint256"
        }
      ],
      "stateMutability": "view",
      "type": "function"
    },
    {
      "inputs": [
        {
          "internalType": "uint256",
          "name": "tokenId",
          "type": "uint256"
        }
      ],
      "name": "getApproved",
      "outputs": [
        {
          "internalType": "address",
          "name": "",
          "type": "address"
        }
      ],
      "stateMutability": "view",
      "type": "function"
    },
    {
      "inputs": [
        {
          "internalType": "address",
          "name": "owner",
          "type": "address"
        },
        {
          "internalType": "address",
          "name": "operator",
          "type": "address"
        }
      ],
      "name": "isApprovedForAll",
      "outputs": [
        {
          "internalType": "bool",
          "name": "",
          "type": "bool"
        }
      ],
      "stateMutability": "view",
      "type": "function"
    },
    {
      "inputs": [],
      "name": "name",
      "outputs": [
        {
          "internalType": "string",
          "name": "",
          "type": "string"
        }
      ],
      "stateMutability": "view",
      "type": "function"
    },
    {
      "inputs": [],
      "name": "owner",
      "outputs": [
        {
          "internalType": "address",
          "name": "",
          "type": "address"
        }
      ],
      "stateMutability": "view",
      "type": "function"
    },
    {
      "inputs": [
        {
          "internalType": "uint256",
          "name": "tokenId",
          "type": "uint256"
        }
      ],
      "name": "ownerOf",
      "outputs": [
        {
          "internalType": "address",
          "name": "",
          "type": "address"
        }
      ],
      "stateMutability": "view",
      "type": "function"
    },
    {
      "inputs": [
        {
          "internalType": "bytes4",
          "name": "interfaceId",
          "type": "bytes4"
        }
      ],
      "name": "supportsInterface",
      "outputs": [
        {
          "internalType": "bool",
          "name": "",
          "type": "bool"
        }
      ],
      "stateMutability": "view",
      "type": "function"
    },
    {
      "inputs": [],
      "name": "symbol",
      "outputs": [
        {
          "internalType": "string",
          "name": "",
          "type": "string"
        }
      ],
      "stateMutability": "view",
      "type": "function"
    },
    {
      "inputs": [
        {
          "internalType": "uint256",
          "name": "index",
          "type": "uint256"
        }
      ],
      "name": "tokenByIndex",
      "outputs": [
        {
          "internalType": "uint256",
          "name": "",
          "type": "uint256"
        }
      ],
      "stateMutability": "view",
      "type": "function"
    },
    {
      "inputs": [
        {
          "internalType": "address",
          "name": "owner",
          "type": "address"
        },
        {
          "internalType": "uint256",
          "name": "index",
          "type": "uint256"
        }
      ],
      "name": "tokenOfOwnerByIndex",
      "outputs": [
        {
          "internalType": "uint256",
          "name": "",
          "type": "uint256"
        }
      ],
      "stateMutability": "view",
      "type": "function"
    },
    {
      "inputs": [
        {
          "internalType": "uint256",
          "name": "tokenId",
          "type": "uint256"
        }
      ],
      "name": "tokenURI",
      "outputs": [
        {
          "internalType": "string",
          "name": "",
          "type": "string"
        }
      ],
      "stateMutability": "view",
      "type": "function"
    },
    {
      "inputs": [],
      "name": "totalSupply",
      "outputs": [
        {
          "internalType": "uint256",
          "name": "",
          "type": "uint256"
        }
      ],
      "stateMutability": "view",
      "type": "function"
    }
  ],
  "bytecode": "0x60806040523480156200001157600080fd5b506040518060400160405280600b81526020017f4372797374616c204e46540000000000000000000000000000000000000000008152506040518060400160405280600481526020017f434e465400000000000000000000000000000000000000000000000000000000815250816000908051906020019062000096929190620001a6565b508060019080519060200190620000af929190620001a6565b505050620000d2620000c6620000d860201b60201c565b620000e060201b60201c565b620002bb565b600033905090565b6000600b60009054906101000a900473ffffffffffffffffffffffffffffffffffffffff16905081600b60006101000a81548173ffffffffffffffffffffffffffffffffffffffff021916908373ffffffffffffffffffffffffffffffffffffffff1602179055508173ffffffffffffffffffffffffffffffffffffffff168173ffffffffffffffffffffffffffffffffffffffff167f8be0079c531659141344cd1fd0a4f28419497f9722a3daafe3b4186f6b6457e060405160405180910390a35050565b828054620001b49062000285565b90600052602060002090601f016020900481019282620001d8576000855562000224565b82601f10620001f357805160ff191683800117855562000224565b8280016001018555821562000224579182015b828111156200022357825182559160200191906001019062000206565b5b50905062000233919062000237565b5090565b5b808211156200025257600081600090555060010162000238565b5090565b7f4e487b7100000000000000000000000000000000000000000000000000000000600052602260045260246000fd5b600060028204905060018216806200029e57607f821691505b60208210811415620002b557620002b462000256565b5b50919050565b6137d080620002cb6000396000f3fe608060405234801561001057600080fd5b506004361061012c5760003560e01c806370a08231116100ad578063b88d4fde11610071578063b88d4fde14610343578063c87b56dd1461035f578063e985e9c51461038f578063eacabe14146103bf578063f2fde38b146103db5761012c565b806370a08231146102b1578063715018a6146102e15780638da5cb5b146102eb57806395d89b4114610309578063a22cb465146103275761012c565b806323b872dd116100f457806323b872dd146101e95780632f745c591461020557806342842e0e146102355780634f6ccce7146102515780636352211e146102815761012c565b806301ffc9a71461013157806306fdde0314610161578063081812fc1461017f578063095ea7b3146101af57806318160ddd146101cb575b600080fd5b61014b600480360381019061014691906122e1565b6103f7565b6040516101589190612329565b60405180910390f35b610169610409565b60405161017691906123dd565b60405180910390f35b61019960048036038101906101949190612435565b61049b565b6040516101a691906124a3565b60405180910390f35b6101c960048036038101906101c491906124ea565b610520565b005b6101d3610638565b6040516101e09190612539565b60405180910390f35b61020360048036038101906101fe9190612554565b610645565b005b61021f600480360381019061021a91906124ea565b6106a5565b60405161022c9190612539565b60405180910390f35b61024f600480360381019061024a9190612554565b61074a565b005b61026b60048036038101906102669190612435565b61076a565b6040516102789190612539565b60405180910390f35b61029b60048036038101906102969190612435565b6107db565b6040516102a891906124a3565b60405180910390f35b6102cb60048036038101906102c691906125a7565b61088d565b6040516102d89190612539565b60405180910390f35b6102e9610945565b005b6102f36109cd565b60405161030091906124a3565b60405180910390f35b6103116109f7565b60405161031e91906123dd565b60405180910390f35b610341600480360381019061033c9190612600565b610a89565b005b61035d60048036038101906103589190612775565b610a9f565b005b61037960048036038101906103749190612435565b610b01565b60405161038691906123dd565b60405180910390f35b6103a960048036038101906103a491906127f8565b610b13565b6040516103b69190612329565b60405180910390f35b6103d960048036038101906103d491906128d9565b610ba7565b005b6103f560048036038101906103f091906125a7565b610bd8565b005b600061040282610cd0565b9050919050565b60606000805461041890612964565b80601f016020809104026020016040519081016040528092919081815260200182805461044490612964565b80156104915780601f1061046657610100808354040283529160200191610491565b820191906000526020600020905b81548152906001019060200180831161047457829003601f168201915b5050505050905090565b60006104a682610d4a565b6104e5576040517f08c379a00000000000000000000000000000000000000000000000000000000081526004016104dc90612a08565b60405180910390fd5b6004600083815260200190815260200160002060009054906101000a900473ffffffffffffffffffffffffffffffffffffffff169050919050565b600061052b826107db565b90508073ffffffffffffffffffffffffffffffffffffffff168373ffffffffffffffffffffffffffffffffffffffff16141561059c576040517f08c379a000000000000000000000000000000000000000000000000000000000815260040161059390612a9a565b60405180910390fd5b8073ffffffffffffffffffffffffffffffffffffffff166105bb610db6565b73ffffffffffffffffffffffffffffffffffffffff1614806105ea57506105e9816105e4610db6565b610b13565b5b610629576040517f08c379a000000000000000000000000000000000000000000000000000000000815260040161062090612b2c565b60405180910390fd5b6106338383610dbe565b505050565b6000600880549050905090565b610656610650610db6565b82610e77565b610695576040517f08c379a000000000000000000000000000000000000000000000000000000000815260040161068c90612bbe565b60405180910390fd5b6106a0838383610f55565b505050565b60006106b08361088d565b82106106f1576040517f08c379a00000000000000000000000000000000000000000000000000000000081526004016106e890612c50565b60405180910390fd5b600660008473ffffffffffffffffffffffffffffffffffffffff1673ffffffffffffffffffffffffffffffffffffffff168152602001908152602001600020600083815260200190815260200160002054905092915050565b61076583838360405180602001604052806000815250610a9f565b505050565b6000610774610638565b82106107b5576040517f08c379a00000000000000000000000000000000000000000000000000000000081526004016107ac90612ce2565b60405180910390fd5b600882815481106107c9576107c8612d02565b5b90600052602060002001549050919050565b6000806002600084815260200190815260200160002060009054906101000a900473ffffffffffffffffffffffffffffffffffffffff169050600073ffffffffffffffffffffffffffffffffffffffff168173ffffffffffffffffffffffffffffffffffffffff161415610884576040517f08c379a000000000000000000000000000000000000000000000000000000000815260040161087b90612da3565b60405180910390fd5b80915050919050565b60008073ffffffffffffffffffffffffffffffffffffffff168273ffffffffffffffffffffffffffffffffffffffff1614156108fe576040517f08c379a00000000000000000000000000000000000000000000000000000000081526004016108f590612e35565b60405180910390fd5b600360008373ffffffffffffffffffffffffffffffffffffffff1673ffffffffffffffffffffffffffffffffffffffff168152602001908152602001600020549050919050565b61094d610db6565b73ffffffffffffffffffffffffffffffffffffffff1661096b6109cd565b73ffffffffffffffffffffffffffffffffffffffff16146109c1576040517f08c379a00000000000000000000000000000000000000000000000000000000081526004016109b890612ea1565b60405180910390fd5b6109cb60006111bc565b565b6000600b60009054906101000a900473ffffffffffffffffffffffffffffffffffffffff16905090565b606060018054610a0690612964565b80601f0160208091040260200160405190810160405280929190818152602001828054610a3290612964565b8015610a7f5780601f10610a5457610100808354040283529160200191610a7f565b820191906000526020600020905b815481529060010190602001808311610a6257829003601f168201915b5050505050905090565b610a9b610a94610db6565b8383611282565b5050565b610ab0610aaa610db6565b83610e77565b610aef576040517f08c379a0000000000000000000000000000000000000000000000000000000008152600401610ae690612bbe565b60405180910390fd5b610afb848484846113ef565b50505050565b6060610b0c8261144b565b9050919050565b6000600560008473ffffffffffffffffffffffffffffffffffffffff1673ffffffffffffffffffffffffffffffffffffffff16815260200190815260200160002060008373ffffffffffffffffffffffffffffffffffffffff1673ffffffffffffffffffffffffffffffffffffffff16815260200190815260200160002060009054906101000a900460ff16905092915050565b6000610bb3600c61159d565b9050610bbf600c6115ab565b610bc983826115c1565b610bd381836115df565b505050565b610be0610db6565b73ffffffffffffffffffffffffffffffffffffffff16610bfe6109cd565b73ffffffffffffffffffffffffffffffffffffffff1614610c54576040517f08c379a0000000000000000000000000000000000000000000000000000000008152600401610c4b90612ea1565b60405180910390fd5b600073ffffffffffffffffffffffffffffffffffffffff168173ffffffffffffffffffffffffffffffffffffffff161415610cc4576040517f08c379a0000000000000000000000000000000000000000000000000000000008152600401610cbb90612f33565b60405180910390fd5b610ccd816111bc565b50565b60007f780e9d63000000000000000000000000000000000000000000000000000000007bffffffffffffffffffffffffffffffffffffffffffffffffffffffff1916827bffffffffffffffffffffffffffffffffffffffffffffffffffffffff19161480610d435750610d4282611653565b5b9050919050565b60008073ffffffffffffffffffffffffffffffffffffffff166002600084815260200190815260200160002060009054906101000a900473ffffffffffffffffffffffffffffffffffffffff1673ffffffffffffffffffffffffffffffffffffffff1614159050919050565b600033905090565b816004600083815260200190815260200160002060006101000a81548173ffffffffffffffffffffffffffffffffffffffff021916908373ffffffffffffffffffffffffffffffffffffffff160217905550808273ffffffffffffffffffffffffffffffffffffffff16610e31836107db565b73ffffffffffffffffffffffffffffffffffffffff167f8c5be1e5ebec7d5bd14f71427d1e84f3dd0314c0f7b2291e5b200ac8c7c3b92560405160405180910390a45050565b6000610e8282610d4a565b610ec1576040517f08c379a0000000000000000000000000000000000000000000000000000000008152600401610eb890612fc5565b60405180910390fd5b6000610ecc836107db565b90508073ffffffffffffffffffffffffffffffffffffffff168473ffffffffffffffffffffffffffffffffffffffff161480610f3b57508373ffffffffffffffffffffffffffffffffffffffff16610f238461049b565b73ffffffffffffffffffffffffffffffffffffffff16145b80610f4c5750610f4b8185610b13565b5b91505092915050565b8273ffffffffffffffffffffffffffffffffffffffff16610f75826107db565b73ffffffffffffffffffffffffffffffffffffffff1614610fcb576040517f08c379a0000000000000000000000000000000000000000000000000000000008152600401610fc290613057565b60405180910390fd5b600073ffffffffffffffffffffffffffffffffffffffff168273ffffffffffffffffffffffffffffffffffffffff16141561103b576040517f08c379a0000000000000000000000000000000000000000000000000000000008152600401611032906130e9565b60405180910390fd5b611046838383611735565b611051600082610dbe565b6001600360008573ffffffffffffffffffffffffffffffffffffffff1673ffffffffffffffffffffffffffffffffffffffff16815260200190815260200160002060008282546110a19190613138565b925050819055506001600360008473ffffffffffffffffffffffffffffffffffffffff1673ffffffffffffffffffffffffffffffffffffffff16815260200190815260200160002060008282546110f8919061316c565b92505081905550816002600083815260200190815260200160002060006101000a81548173ffffffffffffffffffffffffffffffffffffffff021916908373ffffffffffffffffffffffffffffffffffffffff160217905550808273ffffffffffffffffffffffffffffffffffffffff168473ffffffffffffffffffffffffffffffffffffffff167fddf252ad1be2c89b69c2b068fc378daa952ba7f163c4a11628f55a4df523b3ef60405160405180910390a46111b7838383611745565b505050565b6000600b60009054906101000a900473ffffffffffffffffffffffffffffffffffffffff16905081600b60006101000a81548173ffffffffffffffffffffffffffffffffffffffff021916908373ffffffffffffffffffffffffffffffffffffffff1602179055508173ffffffffffffffffffffffffffffffffffffffff168173ffffffffffffffffffffffffffffffffffffffff167f8be0079c531659141344cd1fd0a4f28419497f9722a3daafe3b4186f6b6457e060405160405180910390a35050565b8173ffffffffffffffffffffffffffffffffffffffff168373ffffffffffffffffffffffffffffffffffffffff1614156112f1576040517f08c379a00000000000000000000000000000000000000000000000000000000081526004016112e89061320e565b60405180910390fd5b80600560008573ffffffffffffffffffffffffffffffffffffffff1673ffffffffffffffffffffffffffffffffffffffff16815260200190815260200160002060008473ffffffffffffffffffffffffffffffffffffffff1673ffffffffffffffffffffffffffffffffffffffff16815260200190815260200160002060006101000a81548160ff0219169083151502179055508173ffffffffffffffffffffffffffffffffffffffff168373ffffffffffffffffffffffffffffffffffffffff167f17307eab39ab6107e8899845ad3d59bd9653f200f220920489ca2b5937696c31836040516113e29190612329565b60405180910390a3505050565b6113fa848484610f55565b6114068484848461174a565b611445576040517f08c379a000000000000000000000000000000000000000000000000000000000815260040161143c906132a0565b60405180910390fd5b50505050565b606061145682610d4a565b611495576040517f08c379a000000000000000000000000000000000000000000000000000000000815260040161148c90613332565b60405180910390fd5b6000600a600084815260200190815260200160002080546114b590612964565b80601f01602080910402602001604051908101604052809291908181526020018280546114e190612964565b801561152e5780601f106115035761010080835404028352916020019161152e565b820191906000526020600020905b81548152906001019060200180831161151157829003601f168201915b50505050509050600061153f6118d2565b9050600081511415611555578192505050611598565b60008251111561158a57808260405160200161157292919061338e565b60405160208183030381529060405292505050611598565b611593846118e9565b925050505b919050565b600081600001549050919050565b6001816000016000828254019250508190555050565b6115db828260405180602001604052806000815250611990565b5050565b6115e882610d4a565b611627576040517f08c379a000000000000000000000000000000000000000000000000000000000815260040161161e90613424565b60405180910390fd5b80600a6000848152602001908152602001600020908051906020019061164e9291906121d2565b505050565b60007f80ac58cd000000000000000000000000000000000000000000000000000000007bffffffffffffffffffffffffffffffffffffffffffffffffffffffff1916827bffffffffffffffffffffffffffffffffffffffffffffffffffffffff1916148061171e57507f5b5e139f000000000000000000000000000000000000000000000000000000007bffffffffffffffffffffffffffffffffffffffffffffffffffffffff1916827bffffffffffffffffffffffffffffffffffffffffffffffffffffffff1916145b8061172e575061172d826119eb565b5b9050919050565b611740838383611a55565b505050565b505050565b600061176b8473ffffffffffffffffffffffffffffffffffffffff16611b69565b156118c5578373ffffffffffffffffffffffffffffffffffffffff1663150b7a02611794610db6565b8786866040518563ffffffff1660e01b81526004016117b69493929190613499565b6020604051808303816000875af19250505080156117f257506040513d601f19601f820116820180604052508101906117ef91906134fa565b60015b611875573d8060008114611822576040519150601f19603f3d011682016040523d82523d6000602084013e611827565b606091505b5060008151141561186d576040517f08c379a0000000000000000000000000000000000000000000000000000000008152600401611864906132a0565b60405180910390fd5b805181602001fd5b63150b7a0260e01b7bffffffffffffffffffffffffffffffffffffffffffffffffffffffff1916817bffffffffffffffffffffffffffffffffffffffffffffffffffffffff1916149150506118ca565b600190505b949350505050565b606060405180602001604052806000815250905090565b60606118f482610d4a565b611933576040517f08c379a000000000000000000000000000000000000000000000000000000000815260040161192a90613599565b60405180910390fd5b600061193d6118d2565b9050600081511161195d5760405180602001604052806000815250611988565b8061196784611b8c565b60405160200161197892919061338e565b6040516020818303038152906040525b915050919050565b61199a8383611ced565b6119a7600084848461174a565b6119e6576040517f08c379a00000000000000000000000000000000000000000000000000000000081526004016119dd906132a0565b60405180910390fd5b505050565b60007f01ffc9a7000000000000000000000000000000000000000000000000000000007bffffffffffffffffffffffffffffffffffffffffffffffffffffffff1916827bffffffffffffffffffffffffffffffffffffffffffffffffffffffff1916149050919050565b611a60838383611ec7565b600073ffffffffffffffffffffffffffffffffffffffff168373ffffffffffffffffffffffffffffffffffffffff161415611aa357611a9e81611ecc565b611ae2565b8173ffffffffffffffffffffffffffffffffffffffff168373ffffffffffffffffffffffffffffffffffffffff1614611ae157611ae08382611f15565b5b5b600073ffffffffffffffffffffffffffffffffffffffff168273ffffffffffffffffffffffffffffffffffffffff161415611b2557611b2081612082565b611b64565b8273ffffffffffffffffffffffffffffffffffffffff168273ffffffffffffffffffffffffffffffffffffffff1614611b6357611b628282612153565b5b5b505050565b6000808273ffffffffffffffffffffffffffffffffffffffff163b119050919050565b60606000821415611bd4576040518060400160405280600181526020017f30000000000000000000000000000000000000000000000000000000000000008152509050611ce8565b600082905060005b60008214611c06578080611bef906135b9565b915050600a82611bff9190613631565b9150611bdc565b60008167ffffffffffffffff811115611c2257611c2161264a565b5b6040519080825280601f01601f191660200182016040528015611c545781602001600182028036833780820191505090505b5090505b60008514611ce157600182611c6d9190613138565b9150600a85611c7c9190613662565b6030611c88919061316c565b60f81b818381518110611c9e57611c9d612d02565b5b60200101907effffffffffffffffffffffffffffffffffffffffffffffffffffffffffffff1916908160001a905350600a85611cda9190613631565b9450611c58565b8093505050505b919050565b600073ffffffffffffffffffffffffffffffffffffffff168273ffffffffffffffffffffffffffffffffffffffff161415611d5d576040517f08c379a0000000000000000000000000000000000000000000000000000000008152600401611d54906136df565b60405180910390fd5b611d6681610d4a565b15611da6576040517f08c379a0000000000000000000000000000000000000000000000000000000008152600401611d9d9061374b565b60405180910390fd5b611db260008383611735565b6001600360008473ffffffffffffffffffffffffffffffffffffffff1673ffffffffffffffffffffffffffffffffffffffff1681526020019081526020016000206000828254611e02919061316c565b92505081905550816002600083815260200190815260200160002060006101000a81548173ffffffffffffffffffffffffffffffffffffffff021916908373ffffffffffffffffffffffffffffffffffffffff160217905550808273ffffffffffffffffffffffffffffffffffffffff16600073ffffffffffffffffffffffffffffffffffffffff167fddf252ad1be2c89b69c2b068fc378daa952ba7f163c4a11628f55a4df523b3ef60405160405180910390a4611ec360008383611745565b5050565b505050565b6008805490506009600083815260200190815260200160002081905550600881908060018154018082558091505060019003906000526020600020016000909190919091505550565b60006001611f228461088d565b611f2c9190613138565b9050600060076000848152602001908152602001600020549050818114612011576000600660008673ffffffffffffffffffffffffffffffffffffffff1673ffffffffffffffffffffffffffffffffffffffff168152602001908152602001600020600084815260200190815260200160002054905080600660008773ffffffffffffffffffffffffffffffffffffffff1673ffffffffffffffffffffffffffffffffffffffff168152602001908152602001600020600084815260200190815260200160002081905550816007600083815260200190815260200160002081905550505b6007600084815260200190815260200160002060009055600660008573ffffffffffffffffffffffffffffffffffffffff1673ffffffffffffffffffffffffffffffffffffffff16815260200190815260200160002060008381526020019081526020016000206000905550505050565b600060016008805490506120969190613138565b90506000600960008481526020019081526020016000205490506000600883815481106120c6576120c5612d02565b5b9060005260206000200154905080600883815481106120e8576120e7612d02565b5b9060005260206000200181905550816009600083815260200190815260200160002081905550600960008581526020019081526020016000206000905560088054806121375761213661376b565b5b6001900381819060005260206000200160009055905550505050565b600061215e8361088d565b905081600660008573ffffffffffffffffffffffffffffffffffffffff1673ffffffffffffffffffffffffffffffffffffffff168152602001908152602001600020600083815260200190815260200160002081905550806007600084815260200190815260200160002081905550505050565b8280546121de90612964565b90600052602060002090601f0160209004810192826122005760008555612247565b82601f1061221957805160ff1916838001178555612247565b82800160010185558215612247579182015b8281111561224657825182559160200191906001019061222b565b5b5090506122549190612258565b5090565b5b80821115612271576000816000905550600101612259565b5090565b6000604051905090565b600080fd5b600080fd5b60007fffffffff0000000000000000000000000000000000000000000000000000000082169050919050565b6122be81612289565b81146122c957600080fd5b50565b6000813590506122db816122b5565b92915050565b6000602082840312156122f7576122f661227f565b5b6000612305848285016122cc565b91505092915050565b60008115159050919050565b6123238161230e565b82525050565b600060208201905061233e600083018461231a565b92915050565b600081519050919050565b600082825260208201905092915050565b60005b8381101561237e578082015181840152602081019050612363565b8381111561238d576000848401525b50505050565b6000601f19601f8301169050919050565b60006123af82612344565b6123b9818561234f565b93506123c9818560208601612360565b6123d281612393565b840191505092915050565b600060208201905081810360008301526123f781846123a4565b905092915050565b6000819050919050565b612412816123ff565b811461241d57600080fd5b50565b60008135905061242f81612409565b92915050565b60006020828403121561244b5761244a61227f565b5b600061245984828501612420565b91505092915050565b600073ffffffffffffffffffffffffffffffffffffffff82169050919050565b600061248d82612462565b9050919050565b61249d81612482565b82525050565b60006020820190506124b86000830184612494565b92915050565b6124c781612482565b81146124d257600080fd5b50565b6000813590506124e4816124be565b92915050565b600080604083850312156125015761250061227f565b5b600061250f858286016124d5565b925050602061252085828601612420565b9150509250929050565b612533816123ff565b82525050565b600060208201905061254e600083018461252a565b92915050565b60008060006060848603121561256d5761256c61227f565b5b600061257b868287016124d5565b935050602061258c868287016124d5565b925050604061259d86828701612420565b9150509250925092565b6000602082840312156125bd576125bc61227f565b5b60006125cb848285016124d5565b91505092915050565b6125dd8161230e565b81146125e857600080fd5b50565b6000813590506125fa816125d4565b92915050565b600080604083850312156126175761261661227f565b5b6000612625858286016124d5565b9250506020612636858286016125eb565b9150509250929050565b600080fd5b600080fd5b7f4e487b7100000000000000000000000000000000000000000000000000000000600052604160045260246000fd5b61268282612393565b810181811067ffffffffffffffff821117156126a1576126a061264a565b5b80604052505050565b60006126b4612275565b90506126c08282612679565b919050565b600067ffffffffffffffff8211156126e0576126df61264a565b5b6126e982612393565b9050602081019050919050565b82818337600083830152505050565b6000612718612713846126c5565b6126aa565b90508281526020810184848401111561273457612733612645565b5b61273f8482856126f6565b509392505050565b600082601f83011261275c5761275b612640565b5b813561276c848260208601612705565b91505092915050565b6000806000806080858703121561278f5761278e61227f565b5b600061279d878288016124d5565b94505060206127ae878288016124d5565b93505060406127bf87828801612420565b925050606085013567ffffffffffffffff8111156127e0576127df612284565b5b6127ec87828801612747565b91505092959194509250565b6000806040838503121561280f5761280e61227f565b5b600061281d858286016124d5565b925050602061282e858286016124d5565b9150509250929050565b600067ffffffffffffffff8211156128535761285261264a565b5b61285c82612393565b9050602081019050919050565b600061287c61287784612838565b6126aa565b90508281526020810184848401111561289857612897612645565b5b6128a38482856126f6565b509392505050565b600082601f8301126128c0576128bf612640565b5b81356128d0848260208601612869565b91505092915050565b600080604083850312156128f0576128ef61227f565b5b60006128fe858286016124d5565b925050602083013567ffffffffffffffff81111561291f5761291e612284565b5b61292b858286016128ab565b9150509250929050565b7f4e487b7100000000000000000000000000000000000000000000000000000000600052602260045260246000fd5b6000600282049050600182168061297c57607f821691505b602082108114156129905761298f612935565b5b50919050565b7f4552433732313a20617070726f76656420717565727920666f72206e6f6e657860008201527f697374656e7420746f6b656e0000000000000000000000000000000000000000602082015250565b60006129f2602c8361234f565b91506129fd82612996565b604082019050919050565b60006020820190508181036000830152612a21816129e5565b9050919050565b7f4552433732313a20617070726f76616c20746f2063757272656e74206f776e6560008201527f7200000000000000000000000000000000000000000000000000000000000000602082015250565b6000612a8460218361234f565b9150612a8f82612a28565b604082019050919050565b60006020820190508181036000830152612ab381612a77565b9050919050565b7f4552433732313a20617070726f76652063616c6c6572206973206e6f74206f7760008201527f6e6572206e6f7220617070726f76656420666f7220616c6c0000000000000000602082015250565b6000612b1660388361234f565b9150612b2182612aba565b604082019050919050565b60006020820190508181036000830152612b4581612b09565b9050919050565b7f4552433732313a207472616e736665722063616c6c6572206973206e6f74206f60008201527f776e6572206e6f7220617070726f766564000000000000000000000000000000602082015250565b6000612ba860318361234f565b9150612bb382612b4c565b604082019050919050565b60006020820190508181036000830152612bd781612b9b565b9050919050565b7f455243373231456e756d657261626c653a206f776e657220696e646578206f7560008201527f74206f6620626f756e6473000000000000000000000000000000000000000000602082015250565b6000612c3a602b8361234f565b9150612c4582612bde565b604082019050919050565b60006020820190508181036000830152612c6981612c2d565b9050919050565b7f455243373231456e756d657261626c653a20676c6f62616c20696e646578206f60008201527f7574206f6620626f756e64730000000000000000000000000000000000000000602082015250565b6000612ccc602c8361234f565b9150612cd782612c70565b604082019050919050565b60006020820190508181036000830152612cfb81612cbf565b9050919050565b7f4e487b7100000000000000000000000000000000000000000000000000000000600052603260045260246000fd5b7f4552433732313a206f776e657220717565727920666f72206e6f6e657869737460008201527f656e7420746f6b656e0000000000000000000000000000000000000000000000602082015250565b6000612d8d60298361234f565b9150612d9882612d31565b604082019050919050565b60006020820190508181036000830152612dbc81612d80565b9050919050565b7f4552433732313a2062616c616e636520717565727920666f7220746865207a6560008201527f726f206164647265737300000000000000000000000000000000000000000000602082015250565b6000612e1f602a8361234f565b9150612e2a82612dc3565b604082019050919050565b60006020820190508181036000830152612e4e81612e12565b9050919050565b7f4f776e61626c653a2063616c6c6572206973206e6f7420746865206f776e6572600082015250565b6000612e8b60208361234f565b9150612e9682612e55565b602082019050919050565b60006020820190508181036000830152612eba81612e7e565b9050919050565b7f4f776e61626c653a206e6577206f776e657220697320746865207a65726f206160008201527f6464726573730000000000000000000000000000000000000000000000000000602082015250565b6000612f1d60268361234f565b9150612f2882612ec1565b604082019050919050565b60006020820190508181036000830152612f4c81612f10565b9050919050565b7f4552433732313a206f70657261746f7220717565727920666f72206e6f6e657860008201527f697374656e7420746f6b656e0000000000000000000000000000000000000000602082015250565b6000612faf602c8361234f565b9150612fba82612f53565b604082019050919050565b60006020820190508181036000830152612fde81612fa2565b9050919050565b7f4552433732313a207472616e736665722066726f6d20696e636f72726563742060008201527f6f776e6572000000000000000000000000000000000000000000000000000000602082015250565b600061304160258361234f565b915061304c82612fe5565b604082019050919050565b6000602082019050818103600083015261307081613034565b9050919050565b7f4552433732313a207472616e7366657220746f20746865207a65726f2061646460008201527f7265737300000000000000000000000000000000000000000000000000000000602082015250565b60006130d360248361234f565b91506130de82613077565b604082019050919050565b60006020820190508181036000830152613102816130c6565b9050919050565b7f4e487b7100000000000000000000000000000000000000000000000000000000600052601160045260246000fd5b6000613143826123ff565b915061314e836123ff565b92508282101561316157613160613109565b5b828203905092915050565b6000613177826123ff565b9150613182836123ff565b9250827fffffffffffffffffffffffffffffffffffffffffffffffffffffffffffffffff038211156131b7576131b6613109565b5b828201905092915050565b7f4552433732313a20617070726f766520746f2063616c6c657200000000000000600082015250565b60006131f860198361234f565b9150613203826131c2565b602082019050919050565b60006020820190508181036000830152613227816131eb565b9050919050565b7f4552433732313a207472616e7366657220746f206e6f6e20455243373231526560008201527f63656976657220696d706c656d656e7465720000000000000000000000000000602082015250565b600061328a60328361234f565b91506132958261322e565b604082019050919050565b600060208201905081810360008301526132b98161327d565b9050919050565b7f45524337323155524953746f726167653a2055524920717565727920666f722060008201527f6e6f6e6578697374656e7420746f6b656e000000000000000000000000000000602082015250565b600061331c60318361234f565b9150613327826132c0565b604082019050919050565b6000602082019050818103600083015261334b8161330f565b9050919050565b600081905092915050565b600061336882612344565b6133728185613352565b9350613382818560208601612360565b80840191505092915050565b600061339a828561335d565b91506133a6828461335d565b91508190509392505050565b7f45524337323155524953746f726167653a2055524920736574206f66206e6f6e60008201527f6578697374656e7420746f6b656e000000000000000000000000000000000000602082015250565b600061340e602e8361234f565b9150613419826133b2565b604082019050919050565b6000602082019050818103600083015261343d81613401565b9050919050565b600081519050919050565b600082825260208201905092915050565b600061346b82613444565b613475818561344f565b9350613485818560208601612360565b61348e81612393565b840191505092915050565b60006080820190506134ae6000830187612494565b6134bb6020830186612494565b6134c8604083018561252a565b81810360608301526134da8184613460565b905095945050505050565b6000815190506134f4816122b5565b92915050565b6000602082840312156135105761350f61227f565b5b600061351e848285016134e5565b91505092915050565b7f4552433732314d657461646174613a2055524920717565727920666f72206e6f60008201527f6e6578697374656e7420746f6b656e0000000000000000000000000000000000602082015250565b6000613583602f8361234f565b915061358e82613527565b604082019050919050565b600060208201905081810360008301526135b281613576565b9050919050565b60006135c4826123ff565b91507fffffffffffffffffffffffffffffffffffffffffffffffffffffffffffffffff8214156135f7576135f6613109565b5b600182019050919050565b7f4e487b7100000000000000000000000000000000000000000000000000000000600052601260045260246000fd5b600061363c826123ff565b9150613647836123ff565b92508261365757613656613602565b5b828204905092915050565b600061366d826123ff565b9150613678836123ff565b92508261368857613687613602565b5b828206905092915050565b7f4552433732313a206d696e7420746f20746865207a65726f2061646472657373600082015250565b60006136c960208361234f565b91506136d482613693565b602082019050919050565b600060208201905081810360008301526136f8816136bc565b9050919050565b7f4552433732313a20746f6b656e20616c7265616479206d696e74656400000000600082015250565b6000613735601c8361234f565b9150613740826136ff565b602082019050919050565b6000602082019050818103600083015261376481613728565b9050919050565b7f4e487b7100000000000000000000000000000000000000000000000000000000600052603160045260246000fdfea2646970667358221220bf8dea5aa5f24bb2517b6dfe37affbef9ac7b9fb10ae14b01c2e9b5e4537165164736f6c634300080c0033",
  "linkReferences": {},
  "deployedLinkReferences": {}
}